{
  "contractName": "EternalStorageProxy",
  "abi": [
    {
      "constant": false,
      "inputs": [],
      "name": "renounceOwnership",
      "outputs": [],
      "payable": false,
      "stateMutability": "nonpayable",
      "type": "function"
    },
    {
      "constant": true,
      "inputs": [],
      "name": "owner",
      "outputs": [
        {
          "name": "",
          "type": "address"
        }
      ],
      "payable": false,
      "stateMutability": "view",
      "type": "function"
    },
    {
      "constant": true,
      "inputs": [],
      "name": "isOwner",
      "outputs": [
        {
          "name": "",
          "type": "bool"
        }
      ],
      "payable": false,
      "stateMutability": "view",
      "type": "function"
    },
    {
      "constant": false,
      "inputs": [
        {
          "name": "newOwner",
          "type": "address"
        }
      ],
      "name": "transferOwnership",
      "outputs": [],
      "payable": false,
      "stateMutability": "nonpayable",
      "type": "function"
    },
    {
      "inputs": [
        {
          "name": "_proxyStorage",
          "type": "address"
        },
        {
          "name": "_implementationAddress",
          "type": "address"
        }
      ],
      "payable": false,
      "stateMutability": "nonpayable",
      "type": "constructor"
    },
    {
      "payable": true,
      "stateMutability": "payable",
      "type": "fallback"
    },
    {
      "anonymous": false,
      "inputs": [
        {
          "indexed": false,
          "name": "version",
          "type": "uint256"
        },
        {
          "indexed": true,
          "name": "implementation",
          "type": "address"
        }
      ],
      "name": "Upgraded",
      "type": "event"
    },
    {
      "anonymous": false,
      "inputs": [
        {
          "indexed": true,
          "name": "previousOwner",
          "type": "address"
        },
        {
          "indexed": true,
          "name": "newOwner",
          "type": "address"
        }
      ],
      "name": "OwnershipTransferred",
      "type": "event"
    },
    {
      "constant": true,
      "inputs": [],
      "name": "getProxyStorage",
      "outputs": [
        {
          "name": "",
          "type": "address"
        }
      ],
      "payable": false,
      "stateMutability": "view",
      "type": "function"
    },
    {
      "constant": true,
      "inputs": [],
      "name": "implementation",
      "outputs": [
        {
          "name": "",
          "type": "address"
        }
      ],
      "payable": false,
      "stateMutability": "view",
      "type": "function"
    },
    {
      "constant": false,
      "inputs": [
        {
          "name": "newImplementation",
          "type": "address"
        }
      ],
      "name": "upgradeTo",
      "outputs": [
        {
          "name": "",
          "type": "bool"
        }
      ],
      "payable": false,
      "stateMutability": "nonpayable",
      "type": "function"
    },
    {
      "constant": true,
      "inputs": [],
      "name": "version",
      "outputs": [
        {
          "name": "",
          "type": "uint256"
        }
      ],
      "payable": false,
      "stateMutability": "view",
      "type": "function"
    }
  ],
  "bytecode": "0x608060405234801561001057600080fd5b50604051604080610cbb8339810180604052604081101561003057600080fd5b81019080805190602001909291908051906020019092919050505033600f60006101000a81548173ffffffffffffffffffffffffffffffffffffffff021916908373ffffffffffffffffffffffffffffffffffffffff160217905550600f60009054906101000a900473ffffffffffffffffffffffffffffffffffffffff1673ffffffffffffffffffffffffffffffffffffffff16600073ffffffffffffffffffffffffffffffffffffffff167f8be0079c531659141344cd1fd0a4f28419497f9722a3daafe3b4186f6b6457e060405160405180910390a3600073ffffffffffffffffffffffffffffffffffffffff168173ffffffffffffffffffffffffffffffffffffffff16141515156101ae576040517f08c379a000000000000000000000000000000000000000000000000000000000815260040180806020018281038252601e8152602001807f496d706c656d656e746174696f6e2061646472657373206973203078302e000081525060200191505060405180910390fd5b600073ffffffffffffffffffffffffffffffffffffffff168273ffffffffffffffffffffffffffffffffffffffff16141515610201576101fc82610262640100000000026401000000009004565b61021a565b61021930610262640100000000026401000000009004565b5b80600160006101000a81548173ffffffffffffffffffffffffffffffffffffffff021916908373ffffffffffffffffffffffffffffffffffffffff16021790555050506102ec565b806004600060405180807f70726f787953746f726167650000000000000000000000000000000000000000815250600c0190506040518091039020815260200190815260200160002060006101000a81548173ffffffffffffffffffffffffffffffffffffffff021916908373ffffffffffffffffffffffffffffffffffffffff16021790555050565b6109c0806102fb6000396000f3fe608060405260043610610098576000357c0100000000000000000000000000000000000000000000000000000000900480638da5cb5b1161006b5780638da5cb5b146101eb5780638f32d59b14610242578063ec15a5e614610271578063f2fde38b146102c857610098565b80633659cfe6146100e957806354fd4d50146101525780635c60da1b1461017d578063715018a6146101d4575b6040517f08c379a00000000000000000000000000000000000000000000000000000000081526004018080602001828103825260238152602001806109726023913960400191505060405180910390fd5b3480156100f557600080fd5b506101386004803603602081101561010c57600080fd5b81019080803573ffffffffffffffffffffffffffffffffffffffff169060200190929190505050610319565b604051808215151515815260200191505060405180910390f35b34801561015e57600080fd5b50610167610522565b6040518082815260200191505060405180910390f35b34801561018957600080fd5b5061019261052b565b604051808273ffffffffffffffffffffffffffffffffffffffff1673ffffffffffffffffffffffffffffffffffffffff16815260200191505060405180910390f35b3480156101e057600080fd5b506101e9610555565b005b3480156101f757600080fd5b50610200610692565b604051808273ffffffffffffffffffffffffffffffffffffffff1673ffffffffffffffffffffffffffffffffffffffff16815260200191505060405180910390f35b34801561024e57600080fd5b506102576106bc565b604051808215151515815260200191505060405180910390f35b34801561027d57600080fd5b50610286610714565b604051808273ffffffffffffffffffffffffffffffffffffffff1673ffffffffffffffffffffffffffffffffffffffff16815260200191505060405180910390f35b3480156102d457600080fd5b50610317600480360360208110156102eb57600080fd5b81019080803573ffffffffffffffffffffffffffffffffffffffff169060200190929190505050610784565b005b6000610323610714565b73ffffffffffffffffffffffffffffffffffffffff163373ffffffffffffffffffffffffffffffffffffffff161415156103c5576040517f08c379a00000000000000000000000000000000000000000000000000000000081526004018080602001828103825260208152602001807f43616c6c6572206973206e6f74207468652050726f78792053746f726167652e81525060200191505060405180910390fd5b600073ffffffffffffffffffffffffffffffffffffffff168273ffffffffffffffffffffffffffffffffffffffff161415610403576000905061051d565b8173ffffffffffffffffffffffffffffffffffffffff16600160009054906101000a900473ffffffffffffffffffffffffffffffffffffffff1673ffffffffffffffffffffffffffffffffffffffff161415610462576000905061051d565b600060016000540190506000548111151561048157600091505061051d565b8060008190555082600160006101000a81548173ffffffffffffffffffffffffffffffffffffffff021916908373ffffffffffffffffffffffffffffffffffffffff1602179055508273ffffffffffffffffffffffffffffffffffffffff167f4289d6195cf3c2d2174adf98d0e19d4d2d08887995b99cb7b100e7ffe795820e826040518082815260200191505060405180910390a260019150505b919050565b60008054905090565b6000600160009054906101000a900473ffffffffffffffffffffffffffffffffffffffff16905090565b61055d6106bc565b15156105d1576040517f08c379a00000000000000000000000000000000000000000000000000000000081526004018080602001828103825260148152602001807f53656e646572206973206e6f74206f776e65722e00000000000000000000000081525060200191505060405180910390fd5b600073ffffffffffffffffffffffffffffffffffffffff16600f60009054906101000a900473ffffffffffffffffffffffffffffffffffffffff1673ffffffffffffffffffffffffffffffffffffffff167f8be0079c531659141344cd1fd0a4f28419497f9722a3daafe3b4186f6b6457e060405160405180910390a36000600f60006101000a81548173ffffffffffffffffffffffffffffffffffffffff021916908373ffffffffffffffffffffffffffffffffffffffff160217905550565b6000600f60009054906101000a900473ffffffffffffffffffffffffffffffffffffffff16905090565b6000600f60009054906101000a900473ffffffffffffffffffffffffffffffffffffffff1673ffffffffffffffffffffffffffffffffffffffff163373ffffffffffffffffffffffffffffffffffffffff1614905090565b60006004600060405180807f70726f787953746f726167650000000000000000000000000000000000000000815250600c0190506040518091039020815260200190815260200160002060009054906101000a900473ffffffffffffffffffffffffffffffffffffffff16905090565b61078c6106bc565b1515610800576040517f08c379a00000000000000000000000000000000000000000000000000000000081526004018080602001828103825260148152602001807f53656e646572206973206e6f74206f776e65722e00000000000000000000000081525060200191505060405180910390fd5b6108098161080c565b50565b600073ffffffffffffffffffffffffffffffffffffffff168173ffffffffffffffffffffffffffffffffffffffff16141515156108b1576040517f08c379a000000000000000000000000000000000000000000000000000000000815260040180806020018281038252601f8152602001807f4e6577206f776e657220616464726573732063616e6e6f742062652030782e0081525060200191505060405180910390fd5b8073ffffffffffffffffffffffffffffffffffffffff16600f60009054906101000a900473ffffffffffffffffffffffffffffffffffffffff1673ffffffffffffffffffffffffffffffffffffffff167f8be0079c531659141344cd1fd0a4f28419497f9722a3daafe3b4186f6b6457e060405160405180910390a380600f60006101000a81548173ffffffffffffffffffffffffffffffffffffffff021916908373ffffffffffffffffffffffffffffffffffffffff1602179055505056fe46616c6c6261636b2066756e6374696f6e206973206e6f7420737570706f727465642ea165627a7a723058205a16d13b7d688dc82fd444a3c27b70c202a733406dcd2099193c56f79f0121b10029",
  "source": "pragma solidity ^0.5.0;\n\nimport \"./EternalStorage.sol\";\nimport \"../interfaces/IEternalStorageProxy.sol\";\nimport \"../misc/Ownable.sol\";\n\n\n/// @title EternalStorageProxy\n/// @dev This proxy holds the storage of the token contract and delegates every call to the current implementation set.\n/// Besides, it allows to upgrade the token's behaviour towards further implementations, and provides\n/// authorization control functionalities\ncontract EternalStorageProxy is EternalStorage, IEternalStorageProxy, Ownable {\n\n    bytes32 internal constant PROXY_STORAGE = keccak256(\"proxyStorage\");\n\n    /// @dev This event will be emitted every time the implementation gets upgraded\n    /// @param version representing the version number of the upgraded implementation\n    /// @param implementation representing the address of the upgraded implementation\n    event Upgraded(uint256 version, address indexed implementation);\n\n    modifier onlyProxyStorage() {\n        require(msg.sender == getProxyStorage(), \"Caller is not the Proxy Storage.\");\n        _;\n    }\n\n    constructor(address _proxyStorage, address _implementationAddress) public {\n        require(_implementationAddress != address(0), \"Implementation address is 0x0.\");\n\n        if (_proxyStorage != address(0)) {\n            _setProxyStorage(_proxyStorage);\n        } else {\n            _setProxyStorage(address(this));\n        }\n        \n        _implementation = _implementationAddress;\n    }\n\n    /// @dev Fallback function allowing to perform a delegatecall to the given implementation.\n    /// This function will return whatever the implementation call returns\n    function() external payable {\n        revert(\"Fallback function is not supported.\");\n    }\n\n    function getProxyStorage() public view returns(address) {\n        return addressStorage[PROXY_STORAGE];\n    }\n\n    /// @dev Tells the address of the current implementation\n    /// @return address of the current implementation\n    function implementation() public view returns(address) {\n        return _implementation;\n    }\n\n    /// @dev Allows ProxyStorage contract to upgrade the current implementation.\n    /// @param newImplementation representing the address of the new implementation to be set.\n    function upgradeTo(address newImplementation) public onlyProxyStorage returns(bool) {\n        if (newImplementation == address(0)) {\n            return false;\n        }\n\n        if (_implementation == newImplementation) {\n            return false;\n        }\n\n        uint256 newVersion = _version + 1;\n        if (newVersion <= _version) {\n            return false;\n        }\n\n        _version = newVersion;\n        _implementation = newImplementation;\n\n        emit Upgraded(newVersion, newImplementation);\n        return true;\n    }\n\n    /// @dev Tells the version number of the current implementation\n    /// @return uint representing the number of the current version\n    function version() public view returns(uint256) {\n        return _version;\n    }\n\n    function _setProxyStorage(address _proxyStorage) private {\n        addressStorage[PROXY_STORAGE] = _proxyStorage;\n    }\n}\n",
  "sourcePath": "/home/aznagy/work/ewf/genome/genome-system-contracts/contracts/storage/EternalStorageProxy.sol",
  "compiler": {
    "name": "solc",
    "version": "0.5.4+commit.9549d8ff.Emscripten.clang"
  },
  "schemaVersion": "3.0.2",
  "updatedAt": "2019-03-07T16:41:00.437Z",
  "devdoc": {
    "details": "This proxy holds the storage of the token contract and delegates every call to the current implementation set. Besides, it allows to upgrade the token's behaviour towards further implementations, and provides authorization control functionalities",
    "methods": {
      "implementation()": {
        "details": "Tells the address of the current implementation",
        "return": "address of the current implementation"
      },
      "isOwner()": {
        "return": "true if `msg.sender` is the owner of the contract."
      },
      "owner()": {
        "return": "the address of the owner."
      },
      "renounceOwnership()": {
        "details": "Allows the current owner to relinquish control of the contract. It will not be possible to call the functions with the `onlyOwner` modifier anymore."
      },
      "transferOwnership(address)": {
        "details": "Allows the current owner to transfer control of the contract to a newOwner.",
        "params": {
          "newOwner": "The address to transfer ownership to."
        }
      },
      "upgradeTo(address)": {
        "details": "Allows ProxyStorage contract to upgrade the current implementation.",
        "params": {
          "newImplementation": "representing the address of the new implementation to be set."
        }
      },
      "version()": {
        "details": "Tells the version number of the current implementation",
        "return": "uint representing the number of the current version"
      }
    },
    "title": "EternalStorageProxy"
  },
  "userdoc": {
    "methods": {
      "renounceOwnership()": {
        "notice": "Renouncing ownership will leave the contract without an owner, thereby removing any functionality that is only available to the owner."
      }
    }
  }
}