{
  "contractName": "EternalStorageProxy",
  "abi": [
    {
      "constant": false,
      "inputs": [],
      "name": "renounceOwnership",
      "outputs": [],
      "payable": false,
      "stateMutability": "nonpayable",
      "type": "function"
    },
    {
      "constant": true,
      "inputs": [],
      "name": "owner",
      "outputs": [
        {
          "name": "",
          "type": "address"
        }
      ],
      "payable": false,
      "stateMutability": "view",
      "type": "function"
    },
    {
      "constant": true,
      "inputs": [],
      "name": "isOwner",
      "outputs": [
        {
          "name": "",
          "type": "bool"
        }
      ],
      "payable": false,
      "stateMutability": "view",
      "type": "function"
    },
    {
      "constant": false,
      "inputs": [
        {
          "name": "newOwner",
          "type": "address"
        }
      ],
      "name": "transferOwnership",
      "outputs": [],
      "payable": false,
      "stateMutability": "nonpayable",
      "type": "function"
    },
    {
      "inputs": [
        {
          "name": "_implementationAddress",
          "type": "address"
        }
      ],
      "payable": false,
      "stateMutability": "nonpayable",
      "type": "constructor"
    },
    {
      "payable": false,
      "stateMutability": "nonpayable",
      "type": "fallback"
    },
    {
      "anonymous": false,
      "inputs": [
        {
          "indexed": false,
          "name": "version",
          "type": "uint256"
        },
        {
          "indexed": true,
          "name": "implementation",
          "type": "address"
        }
      ],
      "name": "Upgraded",
      "type": "event"
    },
    {
      "anonymous": false,
      "inputs": [
        {
          "indexed": true,
          "name": "previousOwner",
          "type": "address"
        },
        {
          "indexed": true,
          "name": "newOwner",
          "type": "address"
        }
      ],
      "name": "OwnershipTransferred",
      "type": "event"
    },
    {
      "constant": true,
      "inputs": [],
      "name": "implementation",
      "outputs": [
        {
          "name": "",
          "type": "address"
        }
      ],
      "payable": false,
      "stateMutability": "view",
      "type": "function"
    },
    {
      "constant": false,
      "inputs": [
        {
          "name": "newImplementation",
          "type": "address"
        }
      ],
      "name": "upgradeTo",
      "outputs": [
        {
          "name": "",
          "type": "bool"
        }
      ],
      "payable": false,
      "stateMutability": "nonpayable",
      "type": "function"
    },
    {
      "constant": true,
      "inputs": [],
      "name": "version",
      "outputs": [
        {
          "name": "",
          "type": "uint256"
        }
      ],
      "payable": false,
      "stateMutability": "view",
      "type": "function"
    }
  ],
  "bytecode": "0x608060405234801561001057600080fd5b50604051602080610b0f8339810180604052602081101561003057600080fd5b810190808051906020019092919050505033600f60006101000a81548173ffffffffffffffffffffffffffffffffffffffff021916908373ffffffffffffffffffffffffffffffffffffffff160217905550600f60009054906101000a900473ffffffffffffffffffffffffffffffffffffffff1673ffffffffffffffffffffffffffffffffffffffff16600073ffffffffffffffffffffffffffffffffffffffff167f8be0079c531659141344cd1fd0a4f28419497f9722a3daafe3b4186f6b6457e060405160405180910390a3600073ffffffffffffffffffffffffffffffffffffffff168173ffffffffffffffffffffffffffffffffffffffff16141515156101a4576040517f08c379a000000000000000000000000000000000000000000000000000000000815260040180806020018281038252601e8152602001807f496d706c656d656e746174696f6e2061646472657373206973203078302e000081525060200191505060405180910390fd5b80600160006101000a81548173ffffffffffffffffffffffffffffffffffffffff021916908373ffffffffffffffffffffffffffffffffffffffff1602179055505061091a806101f56000396000f3fe608060405234801561001057600080fd5b506004361061009a576000357c010000000000000000000000000000000000000000000000000000000090048063715018a611610078578063715018a6146102555780638da5cb5b1461025f5780638f32d59b146102a9578063f2fde38b146102cb5761009a565b80633659cfe61461019157806354fd4d50146101ed5780635c60da1b1461020b575b600073ffffffffffffffffffffffffffffffffffffffff16600160009054906101000a900473ffffffffffffffffffffffffffffffffffffffff1673ffffffffffffffffffffffffffffffffffffffff1614151515610144576040517f08c379a00000000000000000000000000000000000000000000000000000000081526004018080602001828103825260258152602001806108ca6025913960400191505060405180910390fd5b6000600160009054906101000a900473ffffffffffffffffffffffffffffffffffffffff1690503660008037600080366000845af43d6000803e806000811461018c573d6000f35b3d6000fd5b6101d3600480360360208110156101a757600080fd5b81019080803573ffffffffffffffffffffffffffffffffffffffff16906020019092919050505061030f565b604051808215151515815260200191505060405180910390f35b6101f56104ea565b6040518082815260200191505060405180910390f35b6102136104f3565b604051808273ffffffffffffffffffffffffffffffffffffffff1673ffffffffffffffffffffffffffffffffffffffff16815260200191505060405180910390f35b61025d61051d565b005b61026761065a565b604051808273ffffffffffffffffffffffffffffffffffffffff1673ffffffffffffffffffffffffffffffffffffffff16815260200191505060405180910390f35b6102b1610684565b604051808215151515815260200191505060405180910390f35b61030d600480360360208110156102e157600080fd5b81019080803573ffffffffffffffffffffffffffffffffffffffff1690602001909291905050506106dc565b005b6000610319610684565b151561038d576040517f08c379a00000000000000000000000000000000000000000000000000000000081526004018080602001828103825260148152602001807f53656e646572206973206e6f74206f776e65722e00000000000000000000000081525060200191505060405180910390fd5b600073ffffffffffffffffffffffffffffffffffffffff168273ffffffffffffffffffffffffffffffffffffffff1614156103cb57600090506104e5565b8173ffffffffffffffffffffffffffffffffffffffff16600160009054906101000a900473ffffffffffffffffffffffffffffffffffffffff1673ffffffffffffffffffffffffffffffffffffffff16141561042a57600090506104e5565b60006001600054019050600054811115156104495760009150506104e5565b8060008190555082600160006101000a81548173ffffffffffffffffffffffffffffffffffffffff021916908373ffffffffffffffffffffffffffffffffffffffff1602179055508273ffffffffffffffffffffffffffffffffffffffff167f4289d6195cf3c2d2174adf98d0e19d4d2d08887995b99cb7b100e7ffe795820e826040518082815260200191505060405180910390a260019150505b919050565b60008054905090565b6000600160009054906101000a900473ffffffffffffffffffffffffffffffffffffffff16905090565b610525610684565b1515610599576040517f08c379a00000000000000000000000000000000000000000000000000000000081526004018080602001828103825260148152602001807f53656e646572206973206e6f74206f776e65722e00000000000000000000000081525060200191505060405180910390fd5b600073ffffffffffffffffffffffffffffffffffffffff16600f60009054906101000a900473ffffffffffffffffffffffffffffffffffffffff1673ffffffffffffffffffffffffffffffffffffffff167f8be0079c531659141344cd1fd0a4f28419497f9722a3daafe3b4186f6b6457e060405160405180910390a36000600f60006101000a81548173ffffffffffffffffffffffffffffffffffffffff021916908373ffffffffffffffffffffffffffffffffffffffff160217905550565b6000600f60009054906101000a900473ffffffffffffffffffffffffffffffffffffffff16905090565b6000600f60009054906101000a900473ffffffffffffffffffffffffffffffffffffffff1673ffffffffffffffffffffffffffffffffffffffff163373ffffffffffffffffffffffffffffffffffffffff1614905090565b6106e4610684565b1515610758576040517f08c379a00000000000000000000000000000000000000000000000000000000081526004018080602001828103825260148152602001807f53656e646572206973206e6f74206f776e65722e00000000000000000000000081525060200191505060405180910390fd5b61076181610764565b50565b600073ffffffffffffffffffffffffffffffffffffffff168173ffffffffffffffffffffffffffffffffffffffff1614151515610809576040517f08c379a000000000000000000000000000000000000000000000000000000000815260040180806020018281038252601f8152602001807f4e6577206f776e657220616464726573732063616e6e6f742062652030782e0081525060200191505060405180910390fd5b8073ffffffffffffffffffffffffffffffffffffffff16600f60009054906101000a900473ffffffffffffffffffffffffffffffffffffffff1673ffffffffffffffffffffffffffffffffffffffff167f8be0079c531659141344cd1fd0a4f28419497f9722a3daafe3b4186f6b6457e060405160405180910390a380600f60006101000a81548173ffffffffffffffffffffffffffffffffffffffff021916908373ffffffffffffffffffffffffffffffffffffffff1602179055505056fe496d706c656d656e746174696f6e20616464726573732063616e6e6f74206265203078302ea165627a7a723058200d9abd5f2d73f1ff19a357d90dd15a1003a90fbbcd9bcfba7078dd823bac5ecf0029",
  "source": "// Adapted from https://github.com/\n// poanetwork/poa-network-consensus-contracts/blob/master/contracts/eternal-storage/EternalStorageProxy.sol\npragma solidity ^0.5.0;\n\nimport \"./EternalStorage.sol\";\nimport \"../interfaces/IEternalStorageProxy.sol\";\nimport \"../misc/Ownable.sol\";\n\n\n/// @title EternalStorageProxy\n/// @dev This proxy holds the storage contract and delegates every call to the current implementation set.\n/// Besides, it allows to upgrade the token's behaviour towards further implementations, and provides\n/// authorization control functionalities\ncontract EternalStorageProxy is EternalStorage, IEternalStorageProxy, Ownable {\n\n    /// @dev This event will be emitted every time the implementation gets upgraded\n    /// @param version representing the version number of the upgraded implementation\n    /// @param implementation representing the address of the upgraded implementation\n    event Upgraded(uint256 version, address indexed implementation);\n\n    constructor(address _implementationAddress)\n        public\n    {\n        require(_implementationAddress != address(0), \"Implementation address is 0x0.\");\n        \n        _implementation = _implementationAddress;\n    }\n\n    /// @dev Fallback function allowing to perform a delegatecall to the given implementation.\n    /// This function will return whatever the implementation call returns\n    // solhint-disable-next-line no-complex-fallback\n    function()\n        external\n    {\n        require(_implementation != address(0), \"Implementation address cannot be 0x0.\");\n        address _impl = _implementation;\n\n        // solhint-disable-next-line no-inline-assembly\n        assembly {\n            // Copy msg.data. We take full control of memory in this inline assembly\n            // block because it will not return to Solidity code. We overwrite the\n            // Solidity scratch pad at memory position 0\n            calldatacopy(0, 0, calldatasize)\n\n            // Call the implementation.\n            // out and outsize are 0 because we don't know the size yet\n            let result := delegatecall(gas, _impl, 0, calldatasize, 0, 0)\n\n            // Copy the returned data\n            returndatacopy(0, 0, returndatasize)\n\n            switch result\n            // delegatecall returns 0 on error\n            case 0 { revert(0, returndatasize) }\n            default { return(0, returndatasize) }\n        }\n    }\n\n    /// @dev Tells the address of the current implementation\n    /// @return address of the current implementation\n    function implementation()\n        public\n        view\n        returns(address)\n    {\n        return _implementation;\n    }\n\n    /// @dev Allows ProxyStorage contract to upgrade the current implementation.\n    /// @param newImplementation representing the address of the new implementation to be set.\n    function upgradeTo(address newImplementation)\n        public\n        onlyOwner\n        returns(bool)\n    {\n        if (newImplementation == address(0)) {\n            return false;\n        }\n\n        if (_implementation == newImplementation) {\n            return false;\n        }\n\n        uint256 newVersion = _version + 1;\n        if (newVersion <= _version) {\n            return false;\n        }\n\n        _version = newVersion;\n        _implementation = newImplementation;\n\n        emit Upgraded(newVersion, newImplementation);\n        return true;\n    }\n\n    /// @dev Tells the version number of the current implementation\n    /// @return uint representing the number of the current version\n    function version()\n        public\n        view\n        returns(uint256)\n    {\n        return _version;\n    }\n}\n",
  "sourcePath": "/Users/heikoburkhardt/Documents/genome-system-contracts/contracts/storage/EternalStorageProxy.sol",
  "compiler": {
    "name": "solc",
    "version": "0.5.4+commit.9549d8ff.Emscripten.clang"
  },
  "schemaVersion": "3.0.2",
  "updatedAt": "2019-03-12T15:17:51.972Z",
  "devdoc": {
    "details": "This proxy holds the storage contract and delegates every call to the current implementation set. Besides, it allows to upgrade the token's behaviour towards further implementations, and provides authorization control functionalities",
    "methods": {
      "implementation()": {
        "details": "Tells the address of the current implementation",
        "return": "address of the current implementation"
      },
      "isOwner()": {
        "return": "true if `msg.sender` is the owner of the contract."
      },
      "owner()": {
        "return": "the address of the owner."
      },
      "renounceOwnership()": {
        "details": "Allows the current owner to relinquish control of the contract. It will not be possible to call the functions with the `onlyOwner` modifier anymore."
      },
      "transferOwnership(address)": {
        "details": "Allows the current owner to transfer control of the contract to a newOwner.",
        "params": {
          "newOwner": "The address to transfer ownership to."
        }
      },
      "upgradeTo(address)": {
        "details": "Allows ProxyStorage contract to upgrade the current implementation.",
        "params": {
          "newImplementation": "representing the address of the new implementation to be set."
        }
      },
      "version()": {
        "details": "Tells the version number of the current implementation",
        "return": "uint representing the number of the current version"
      }
    },
    "title": "EternalStorageProxy"
  },
  "userdoc": {
    "methods": {
      "renounceOwnership()": {
        "notice": "Renouncing ownership will leave the contract without an owner, thereby removing any functionality that is only available to the owner."
      }
    }
  }
}