{
  "contractName": "SimpleRegistry",
  "abi": [
    {
      "constant": false,
      "inputs": [
        {
          "name": "_new",
          "type": "address"
        }
      ],
      "name": "setOwner",
      "outputs": [],
      "payable": false,
      "stateMutability": "nonpayable",
      "type": "function"
    },
    {
      "constant": true,
      "inputs": [],
      "name": "owner",
      "outputs": [
        {
          "name": "",
          "type": "address"
        }
      ],
      "payable": false,
      "stateMutability": "view",
      "type": "function"
    },
    {
      "constant": true,
      "inputs": [],
      "name": "fee",
      "outputs": [
        {
          "name": "",
          "type": "uint256"
        }
      ],
      "payable": false,
      "stateMutability": "view",
      "type": "function"
    },
    {
      "anonymous": false,
      "inputs": [
        {
          "indexed": false,
          "name": "amount",
          "type": "uint256"
        }
      ],
      "name": "Drained",
      "type": "event"
    },
    {
      "anonymous": false,
      "inputs": [
        {
          "indexed": false,
          "name": "amount",
          "type": "uint256"
        }
      ],
      "name": "FeeChanged",
      "type": "event"
    },
    {
      "anonymous": false,
      "inputs": [
        {
          "indexed": false,
          "name": "name",
          "type": "string"
        },
        {
          "indexed": true,
          "name": "reverse",
          "type": "address"
        }
      ],
      "name": "ReverseProposed",
      "type": "event"
    },
    {
      "anonymous": false,
      "inputs": [
        {
          "indexed": false,
          "name": "name",
          "type": "string"
        },
        {
          "indexed": true,
          "name": "reverse",
          "type": "address"
        }
      ],
      "name": "ReverseConfirmed",
      "type": "event"
    },
    {
      "anonymous": false,
      "inputs": [
        {
          "indexed": false,
          "name": "name",
          "type": "string"
        },
        {
          "indexed": true,
          "name": "reverse",
          "type": "address"
        }
      ],
      "name": "ReverseRemoved",
      "type": "event"
    },
    {
      "anonymous": false,
      "inputs": [
        {
          "indexed": true,
          "name": "name",
          "type": "bytes32"
        },
        {
          "indexed": true,
          "name": "owner",
          "type": "address"
        }
      ],
      "name": "Reserved",
      "type": "event"
    },
    {
      "anonymous": false,
      "inputs": [
        {
          "indexed": true,
          "name": "name",
          "type": "bytes32"
        },
        {
          "indexed": true,
          "name": "oldOwner",
          "type": "address"
        },
        {
          "indexed": true,
          "name": "newOwner",
          "type": "address"
        }
      ],
      "name": "Transferred",
      "type": "event"
    },
    {
      "anonymous": false,
      "inputs": [
        {
          "indexed": true,
          "name": "name",
          "type": "bytes32"
        },
        {
          "indexed": true,
          "name": "owner",
          "type": "address"
        }
      ],
      "name": "Dropped",
      "type": "event"
    },
    {
      "anonymous": false,
      "inputs": [
        {
          "indexed": true,
          "name": "name",
          "type": "bytes32"
        },
        {
          "indexed": false,
          "name": "key",
          "type": "string"
        },
        {
          "indexed": false,
          "name": "plainKey",
          "type": "string"
        }
      ],
      "name": "DataChanged",
      "type": "event"
    },
    {
      "anonymous": false,
      "inputs": [
        {
          "indexed": true,
          "name": "old",
          "type": "address"
        },
        {
          "indexed": true,
          "name": "current",
          "type": "address"
        }
      ],
      "name": "NewOwner",
      "type": "event"
    },
    {
      "constant": false,
      "inputs": [
        {
          "name": "_name",
          "type": "bytes32"
        }
      ],
      "name": "reserve",
      "outputs": [
        {
          "name": "success",
          "type": "bool"
        }
      ],
      "payable": true,
      "stateMutability": "payable",
      "type": "function"
    },
    {
      "constant": false,
      "inputs": [
        {
          "name": "_name",
          "type": "bytes32"
        },
        {
          "name": "_to",
          "type": "address"
        }
      ],
      "name": "transfer",
      "outputs": [
        {
          "name": "success",
          "type": "bool"
        }
      ],
      "payable": false,
      "stateMutability": "nonpayable",
      "type": "function"
    },
    {
      "constant": false,
      "inputs": [
        {
          "name": "_name",
          "type": "bytes32"
        }
      ],
      "name": "drop",
      "outputs": [
        {
          "name": "success",
          "type": "bool"
        }
      ],
      "payable": false,
      "stateMutability": "nonpayable",
      "type": "function"
    },
    {
      "constant": false,
      "inputs": [
        {
          "name": "_name",
          "type": "bytes32"
        },
        {
          "name": "_key",
          "type": "string"
        },
        {
          "name": "_value",
          "type": "bytes32"
        }
      ],
      "name": "setData",
      "outputs": [
        {
          "name": "success",
          "type": "bool"
        }
      ],
      "payable": false,
      "stateMutability": "nonpayable",
      "type": "function"
    },
    {
      "constant": false,
      "inputs": [
        {
          "name": "_name",
          "type": "bytes32"
        },
        {
          "name": "_key",
          "type": "string"
        },
        {
          "name": "_value",
          "type": "address"
        }
      ],
      "name": "setAddress",
      "outputs": [
        {
          "name": "success",
          "type": "bool"
        }
      ],
      "payable": false,
      "stateMutability": "nonpayable",
      "type": "function"
    },
    {
      "constant": false,
      "inputs": [
        {
          "name": "_name",
          "type": "bytes32"
        },
        {
          "name": "_key",
          "type": "string"
        },
        {
          "name": "_value",
          "type": "uint256"
        }
      ],
      "name": "setUint",
      "outputs": [
        {
          "name": "success",
          "type": "bool"
        }
      ],
      "payable": false,
      "stateMutability": "nonpayable",
      "type": "function"
    },
    {
      "constant": false,
      "inputs": [
        {
          "name": "_name",
          "type": "string"
        },
        {
          "name": "_who",
          "type": "address"
        }
      ],
      "name": "proposeReverse",
      "outputs": [
        {
          "name": "success",
          "type": "bool"
        }
      ],
      "payable": false,
      "stateMutability": "nonpayable",
      "type": "function"
    },
    {
      "constant": false,
      "inputs": [
        {
          "name": "_name",
          "type": "string"
        }
      ],
      "name": "confirmReverse",
      "outputs": [
        {
          "name": "success",
          "type": "bool"
        }
      ],
      "payable": false,
      "stateMutability": "nonpayable",
      "type": "function"
    },
    {
      "constant": false,
      "inputs": [
        {
          "name": "_name",
          "type": "string"
        },
        {
          "name": "_who",
          "type": "address"
        }
      ],
      "name": "confirmReverseAs",
      "outputs": [
        {
          "name": "success",
          "type": "bool"
        }
      ],
      "payable": false,
      "stateMutability": "nonpayable",
      "type": "function"
    },
    {
      "constant": false,
      "inputs": [],
      "name": "removeReverse",
      "outputs": [],
      "payable": false,
      "stateMutability": "nonpayable",
      "type": "function"
    },
    {
      "constant": false,
      "inputs": [
        {
          "name": "_amount",
          "type": "uint256"
        }
      ],
      "name": "setFee",
      "outputs": [
        {
          "name": "",
          "type": "bool"
        }
      ],
      "payable": false,
      "stateMutability": "nonpayable",
      "type": "function"
    },
    {
      "constant": false,
      "inputs": [],
      "name": "drain",
      "outputs": [
        {
          "name": "",
          "type": "bool"
        }
      ],
      "payable": false,
      "stateMutability": "nonpayable",
      "type": "function"
    },
    {
      "constant": true,
      "inputs": [
        {
          "name": "_name",
          "type": "bytes32"
        },
        {
          "name": "_key",
          "type": "string"
        }
      ],
      "name": "getData",
      "outputs": [
        {
          "name": "",
          "type": "bytes32"
        }
      ],
      "payable": false,
      "stateMutability": "view",
      "type": "function"
    },
    {
      "constant": true,
      "inputs": [
        {
          "name": "_name",
          "type": "bytes32"
        },
        {
          "name": "_key",
          "type": "string"
        }
      ],
      "name": "getAddress",
      "outputs": [
        {
          "name": "",
          "type": "address"
        }
      ],
      "payable": false,
      "stateMutability": "view",
      "type": "function"
    },
    {
      "constant": true,
      "inputs": [
        {
          "name": "_name",
          "type": "bytes32"
        },
        {
          "name": "_key",
          "type": "string"
        }
      ],
      "name": "getUint",
      "outputs": [
        {
          "name": "",
          "type": "uint256"
        }
      ],
      "payable": false,
      "stateMutability": "view",
      "type": "function"
    },
    {
      "constant": true,
      "inputs": [
        {
          "name": "_name",
          "type": "bytes32"
        }
      ],
      "name": "getOwner",
      "outputs": [
        {
          "name": "",
          "type": "address"
        }
      ],
      "payable": false,
      "stateMutability": "view",
      "type": "function"
    },
    {
      "constant": true,
      "inputs": [
        {
          "name": "_name",
          "type": "bytes32"
        }
      ],
      "name": "hasReverse",
      "outputs": [
        {
          "name": "",
          "type": "bool"
        }
      ],
      "payable": false,
      "stateMutability": "view",
      "type": "function"
    },
    {
      "constant": true,
      "inputs": [
        {
          "name": "_name",
          "type": "bytes32"
        }
      ],
      "name": "getReverse",
      "outputs": [
        {
          "name": "",
          "type": "address"
        }
      ],
      "payable": false,
      "stateMutability": "view",
      "type": "function"
    },
    {
      "constant": true,
      "inputs": [
        {
          "name": "_data",
          "type": "address"
        }
      ],
      "name": "canReverse",
      "outputs": [
        {
          "name": "",
          "type": "bool"
        }
      ],
      "payable": false,
      "stateMutability": "view",
      "type": "function"
    },
    {
      "constant": true,
      "inputs": [
        {
          "name": "_data",
          "type": "address"
        }
      ],
      "name": "reverse",
      "outputs": [
        {
          "name": "",
          "type": "string"
        }
      ],
      "payable": false,
      "stateMutability": "view",
      "type": "function"
    },
    {
      "constant": true,
      "inputs": [
        {
          "name": "_name",
          "type": "bytes32"
        }
      ],
      "name": "reserved",
      "outputs": [
        {
          "name": "",
          "type": "bool"
        }
      ],
      "payable": false,
      "stateMutability": "view",
      "type": "function"
    }
  ],
  "bytecode": "0x6080604052336000806101000a81548173ffffffffffffffffffffffffffffffffffffffff021916908373ffffffffffffffffffffffffffffffffffffffff160217905550670de0b6b3a764000060035534801561005c57600080fd5b506137c08061006c6000396000f3fe608060405260043610610168576000357c0100000000000000000000000000000000000000000000000000000000900480639890220b116100d3578063df57b7421161008c578063df57b7421461097e578063e30bd740146109f9578063eadf976014610ac3578063ef5454d614610b75578063f25eb5c114610c33578063f6d339e414610c4a57610168565b80639890220b146106f4578063ac4e73f914610723578063ac72c120146107e1578063c3a3582514610834578063ddca3f43146108d8578063deb931a21461090357610168565b80636795dbcd116101255780636795dbcd1461041057806369fe0e2d146104e057806379ce9fac146105335780638da5cb5b146105a657806390b97fc1146105fd57806392698814146106a157610168565b806306b2ff471461016d57806313af4035146101d657806319362a28146102275780633f3935d1146102d9578063432ced04146103775780634f39ca59146103bd575b600080fd5b34801561017957600080fd5b506101bc6004803603602081101561019057600080fd5b81019080803573ffffffffffffffffffffffffffffffffffffffff169060200190929190505050610d12565b604051808215151515815260200191505060405180910390f35b3480156101e257600080fd5b50610225600480360360208110156101f957600080fd5b81019080803573ffffffffffffffffffffffffffffffffffffffff169060200190929190505050610d72565b005b34801561023357600080fd5b506102bf6004803603606081101561024a57600080fd5b81019080803590602001909291908035906020019064010000000081111561027157600080fd5b82018360208201111561028357600080fd5b803590602001918460018302840111640100000000831117156102a557600080fd5b909192939192939080359060200190929190505050610ef4565b604051808215151515815260200191505060405180910390f35b3480156102e557600080fd5b5061035d600480360360208110156102fc57600080fd5b810190808035906020019064010000000081111561031957600080fd5b82018360208201111561032b57600080fd5b8035906020019184600183028401116401000000008311171561034d57600080fd5b9091929391929390505050611150565b604051808215151515815260200191505060405180910390f35b6103a36004803603602081101561038d57600080fd5b8101908080359060200190929190505050611431565b604051808215151515815260200191505060405180910390f35b3480156103c957600080fd5b506103f6600480360360208110156103e057600080fd5b810190808035906020019092919050505061178a565b604051808215151515815260200191505060405180910390f35b34801561041c57600080fd5b5061049e6004803603604081101561043357600080fd5b81019080803590602001909291908035906020019064010000000081111561045a57600080fd5b82018360208201111561046c57600080fd5b8035906020019184600183028401116401000000008311171561048e57600080fd5b90919293919293905050506119fe565b604051808273ffffffffffffffffffffffffffffffffffffffff1673ffffffffffffffffffffffffffffffffffffffff16815260200191505060405180910390f35b3480156104ec57600080fd5b506105196004803603602081101561050357600080fd5b8101908080359060200190929190505050611ae4565b604051808215151515815260200191505060405180910390f35b34801561053f57600080fd5b5061058c6004803603604081101561055657600080fd5b8101908080359060200190929190803573ffffffffffffffffffffffffffffffffffffffff169060200190929190505050611bf1565b604051808215151515815260200191505060405180910390f35b3480156105b257600080fd5b506105bb611e23565b604051808273ffffffffffffffffffffffffffffffffffffffff1673ffffffffffffffffffffffffffffffffffffffff16815260200191505060405180910390f35b34801561060957600080fd5b5061068b6004803603604081101561062057600080fd5b81019080803590602001909291908035906020019064010000000081111561064757600080fd5b82018360208201111561065957600080fd5b8035906020019184600183028401116401000000008311171561067b57600080fd5b9091929391929390505050611e48565b6040518082815260200191505060405180910390f35b3480156106ad57600080fd5b506106da600480360360208110156106c457600080fd5b8101908080359060200190929190505050611f2a565b604051808215151515815260200191505060405180910390f35b34801561070057600080fd5b50610709612035565b604051808215151515815260200191505060405180910390f35b34801561072f57600080fd5b506107c76004803603604081101561074657600080fd5b810190808035906020019064010000000081111561076357600080fd5b82018360208201111561077557600080fd5b8035906020019184600183028401116401000000008311171561079757600080fd5b9091929391929390803573ffffffffffffffffffffffffffffffffffffffff1690602001909291905050506121ae565b604051808215151515815260200191505060405180910390f35b3480156107ed57600080fd5b5061081a6004803603602081101561080457600080fd5b8101908080359060200190929190505050612712565b604051808215151515815260200191505060405180910390f35b34801561084057600080fd5b506108c26004803603604081101561085757600080fd5b81019080803590602001909291908035906020019064010000000081111561087e57600080fd5b82018360208201111561089057600080fd5b803590602001918460018302840111640100000000831117156108b257600080fd5b909192939192939050505061281d565b6040518082815260200191505060405180910390f35b3480156108e457600080fd5b506108ed612903565b6040518082815260200191505060405180910390f35b34801561090f57600080fd5b5061093c6004803603602081101561092657600080fd5b8101908080359060200190929190505050612909565b604051808273ffffffffffffffffffffffffffffffffffffffff1673ffffffffffffffffffffffffffffffffffffffff16815260200191505060405180910390f35b34801561098a57600080fd5b506109b7600480360360208110156109a157600080fd5b81019080803590602001909291905050506129e4565b604051808273ffffffffffffffffffffffffffffffffffffffff1673ffffffffffffffffffffffffffffffffffffffff16815260200191505060405180910390f35b348015610a0557600080fd5b50610a4860048036036020811015610a1c57600080fd5b81019080803573ffffffffffffffffffffffffffffffffffffffff169060200190929190505050612abf565b6040518080602001828103825283818151815260200191508051906020019080838360005b83811015610a88578082015181840152602081019050610a6d565b50505050905090810190601f168015610ab55780820380516001836020036101000a031916815260200191505b509250505060405180910390f35b348015610acf57600080fd5b50610b5b60048036036060811015610ae657600080fd5b810190808035906020019092919080359060200190640100000000811115610b0d57600080fd5b820183602082011115610b1f57600080fd5b80359060200191846001830284011164010000000083111715610b4157600080fd5b909192939192939080359060200190929190505050612ba0565b604051808215151515815260200191505060405180910390f35b348015610b8157600080fd5b50610c1960048036036040811015610b9857600080fd5b8101908080359060200190640100000000811115610bb557600080fd5b820183602082011115610bc757600080fd5b80359060200191846001830284011164010000000083111715610be957600080fd5b9091929391929390803573ffffffffffffffffffffffffffffffffffffffff169060200190929190505050612dff565b604051808215151515815260200191505060405180910390f35b348015610c3f57600080fd5b50610c4861307f565b005b348015610c5657600080fd5b50610cf860048036036060811015610c6d57600080fd5b810190808035906020019092919080359060200190640100000000811115610c9457600080fd5b820183602082011115610ca657600080fd5b80359060200191846001830284011164010000000083111715610cc857600080fd5b9091929391929390803573ffffffffffffffffffffffffffffffffffffffff169060200190929190505050613432565b604051808215151515815260200191505060405180910390f35b600080600260008473ffffffffffffffffffffffffffffffffffffffff1673ffffffffffffffffffffffffffffffffffffffff16815260200190815260200160002080546001816001161561010002031660029004905014159050919050565b6000809054906101000a900473ffffffffffffffffffffffffffffffffffffffff1673ffffffffffffffffffffffffffffffffffffffff163373ffffffffffffffffffffffffffffffffffffffff16141515610e36576040517f08c379a000000000000000000000000000000000000000000000000000000000815260040180806020018281038252601d8152602001807f4572726f723a20596f7520617265206e6f7420746865206f776e65722100000081525060200191505060405180910390fd5b8073ffffffffffffffffffffffffffffffffffffffff166000809054906101000a900473ffffffffffffffffffffffffffffffffffffffff1673ffffffffffffffffffffffffffffffffffffffff167f70aea8d848e8a90fb7661b227dc522eb6395c3dac71b63cb59edd5c9899b236460405160405180910390a3806000806101000a81548173ffffffffffffffffffffffffffffffffffffffff021916908373ffffffffffffffffffffffffffffffffffffffff16021790555050565b6000846001600082815260200190815260200160002060010160149054906101000a900460ff16151515610f90576040517f08c379a000000000000000000000000000000000000000000000000000000000815260040180806020018281038252601a8152602001807f4572726f723a204f6e6c79207768656e20656e7472792072617700000000000081525060200191505060405180910390fd5b853373ffffffffffffffffffffffffffffffffffffffff166001600083815260200190815260200160002060000160009054906101000a900473ffffffffffffffffffffffffffffffffffffffff1673ffffffffffffffffffffffffffffffffffffffff1614151561106a576040517f08c379a00000000000000000000000000000000000000000000000000000000081526004018080602001828103825260148152602001807f4572726f723a204f6e6c79206f776e6572206f6600000000000000000000000081525060200191505060405180910390fd5b83600160008981526020019081526020016000206002018787604051808383808284378083019250505092505050908152602001604051809103902081905550867fb829c3e412537bbe794c048ccb9e4605bb4aaaa8e4d4c15c1a6e0c2adc1716ea878789896040518080602001806020018381038352878782818152602001925080828437600081840152601f19601f8201169050808301925050508381038252858582818152602001925080828437600081840152601f19601f820116905080830192505050965050505050505060405180910390a2600192505050949350505050565b600082828080601f016020809104026020016040519081016040528093929190818152602001838380828437600081840152601f19601f82011690508083019250505050505050600160008280519060200120815260200190815260200160002060010160149054906101000a900460ff16151515611237576040517f08c379a00000000000000000000000000000000000000000000000000000000081526004018080602001828103825260168152602001807f4572726f723a204f6e6c79207768656e20656e7472790000000000000000000081525060200191505060405180910390fd5b83838080601f016020809104026020016040519081016040528093929190818152602001838380828437600081840152601f19601f820116905080830192505050505050503373ffffffffffffffffffffffffffffffffffffffff16600160008380519060200120815260200190815260200160002060010160009054906101000a900473ffffffffffffffffffffffffffffffffffffffff1673ffffffffffffffffffffffffffffffffffffffff1614151561135c576040517f08c379a00000000000000000000000000000000000000000000000000000000081526004018080602001828103825260198152602001807f4572726f723a204f6e6c79207768656e2070726f706f7365640000000000000081525060200191505060405180910390fd5b8484600260003373ffffffffffffffffffffffffffffffffffffffff1673ffffffffffffffffffffffffffffffffffffffff16815260200190815260200160002091906113aa9291906136a7565b503373ffffffffffffffffffffffffffffffffffffffff167f098ae8581bb8bd9af1beaf7f2e9f51f31a8e5a8bfada4e303a645d71d9c91920868660405180806020018281038252848482818152602001925080828437600081840152601f19601f820116905080830192505050935050505060405180910390a260019250505092915050565b6000816001600082815260200190815260200160002060010160149054906101000a900460ff161515156114cd576040517f08c379a000000000000000000000000000000000000000000000000000000000815260040180806020018281038252601a8152602001807f4572726f723a204f6e6c79207768656e20656e7472792072617700000000000081525060200191505060405180910390fd5b82600073ffffffffffffffffffffffffffffffffffffffff166001600083815260200190815260200160002060000160009054906101000a900473ffffffffffffffffffffffffffffffffffffffff1673ffffffffffffffffffffffffffffffffffffffff161415156115a8576040517f08c379a000000000000000000000000000000000000000000000000000000000815260040180806020018281038252601b8152602001807f4572726f723a204f6e6c79207768656e20756e7265736572766564000000000081525060200191505060405180910390fd5b6003543410151515611622576040517f08c379a00000000000000000000000000000000000000000000000000000000081526004018080602001828103825260198152602001807f4572726f723a206f6e6c79207768656e2066656520706169640000000000000081525060200191505060405180910390fd5b6000809054906101000a900473ffffffffffffffffffffffffffffffffffffffff1673ffffffffffffffffffffffffffffffffffffffff163373ffffffffffffffffffffffffffffffffffffffff161415156116e6576040517f08c379a000000000000000000000000000000000000000000000000000000000815260040180806020018281038252601d8152602001807f4572726f723a20596f7520617265206e6f7420746865206f776e65722100000081525060200191505060405180910390fd5b336001600086815260200190815260200160002060000160006101000a81548173ffffffffffffffffffffffffffffffffffffffff021916908373ffffffffffffffffffffffffffffffffffffffff1602179055503373ffffffffffffffffffffffffffffffffffffffff16847f4963513eca575aba66fdcd25f267aae85958fe6fb97e75fa25d783f1a091a22160405160405180910390a3600192505050919050565b6000816001600082815260200190815260200160002060010160149054906101000a900460ff16151515611826576040517f08c379a000000000000000000000000000000000000000000000000000000000815260040180806020018281038252601a8152602001807f4572726f723a204f6e6c79207768656e20656e7472792072617700000000000081525060200191505060405180910390fd5b823373ffffffffffffffffffffffffffffffffffffffff166001600083815260200190815260200160002060000160009054906101000a900473ffffffffffffffffffffffffffffffffffffffff1673ffffffffffffffffffffffffffffffffffffffff16141515611900576040517f08c379a00000000000000000000000000000000000000000000000000000000081526004018080602001828103825260148152602001807f4572726f723a204f6e6c79206f776e6572206f6600000000000000000000000081525060200191505060405180910390fd5b600260006001600087815260200190815260200160002060010160009054906101000a900473ffffffffffffffffffffffffffffffffffffffff1673ffffffffffffffffffffffffffffffffffffffff1673ffffffffffffffffffffffffffffffffffffffff16815260200190815260200160002060006119819190613727565b600180600086815260200190815260200160002060010160146101000a81548160ff0219169083151502179055503373ffffffffffffffffffffffffffffffffffffffff16847fef1961b4d2909dc23643b309bfe5c3e5646842d98c3a58517037ef3871185af360405160405180910390a3600192505050919050565b6000836001600082815260200190815260200160002060010160149054906101000a900460ff16151515611a9a576040517f08c379a000000000000000000000000000000000000000000000000000000000815260040180806020018281038252601a8152602001807f4572726f723a204f6e6c79207768656e20656e7472792072617700000000000081525060200191505060405180910390fd5b600160008681526020019081526020016000206002018484604051808383808284378083019250505092505050908152602001604051809103902054600190049150509392505050565b60008060009054906101000a900473ffffffffffffffffffffffffffffffffffffffff1673ffffffffffffffffffffffffffffffffffffffff163373ffffffffffffffffffffffffffffffffffffffff16141515611baa576040517f08c379a000000000000000000000000000000000000000000000000000000000815260040180806020018281038252601d8152602001807f4572726f723a20596f7520617265206e6f7420746865206f776e65722100000081525060200191505060405180910390fd5b816003819055507f6bbc57480a46553fa4d156ce702beef5f3ad66303b0ed1a5d4cb44966c6584c3826040518082815260200191505060405180910390a160019050919050565b6000826001600082815260200190815260200160002060010160149054906101000a900460ff16151515611c8d576040517f08c379a000000000000000000000000000000000000000000000000000000000815260040180806020018281038252601a8152602001807f4572726f723a204f6e6c79207768656e20656e7472792072617700000000000081525060200191505060405180910390fd5b833373ffffffffffffffffffffffffffffffffffffffff166001600083815260200190815260200160002060000160009054906101000a900473ffffffffffffffffffffffffffffffffffffffff1673ffffffffffffffffffffffffffffffffffffffff16141515611d67576040517f08c379a00000000000000000000000000000000000000000000000000000000081526004018080602001828103825260148152602001807f4572726f723a204f6e6c79206f776e6572206f6600000000000000000000000081525060200191505060405180910390fd5b836001600087815260200190815260200160002060000160006101000a81548173ffffffffffffffffffffffffffffffffffffffff021916908373ffffffffffffffffffffffffffffffffffffffff1602179055508373ffffffffffffffffffffffffffffffffffffffff163373ffffffffffffffffffffffffffffffffffffffff16867f7b97c62130aa09acbbcbf7482630e756592496f1759eaf702f469cf64dfb779460405160405180910390a460019250505092915050565b6000809054906101000a900473ffffffffffffffffffffffffffffffffffffffff1681565b6000836001600082815260200190815260200160002060010160149054906101000a900460ff16151515611ee4576040517f08c379a000000000000000000000000000000000000000000000000000000000815260040180806020018281038252601a8152602001807f4572726f723a204f6e6c79207768656e20656e7472792072617700000000000081525060200191505060405180910390fd5b6001600086815260200190815260200160002060020184846040518083838082843780830192505050925050509081526020016040518091039020549150509392505050565b6000816001600082815260200190815260200160002060010160149054906101000a900460ff16151515611fc6576040517f08c379a000000000000000000000000000000000000000000000000000000000815260040180806020018281038252601a8152602001807f4572726f723a204f6e6c79207768656e20656e7472792072617700000000000081525060200191505060405180910390fd5b600073ffffffffffffffffffffffffffffffffffffffff166001600085815260200190815260200160002060000160009054906101000a900473ffffffffffffffffffffffffffffffffffffffff1673ffffffffffffffffffffffffffffffffffffffff161415915050919050565b60008060009054906101000a900473ffffffffffffffffffffffffffffffffffffffff1673ffffffffffffffffffffffffffffffffffffffff163373ffffffffffffffffffffffffffffffffffffffff161415156120fb576040517f08c379a000000000000000000000000000000000000000000000000000000000815260040180806020018281038252601d8152602001807f4572726f723a20596f7520617265206e6f7420746865206f776e65722100000081525060200191505060405180910390fd5b7fdef931299fe61d176f949118058530c1f3f539dcb6950b4e372c9b835c33ca073073ffffffffffffffffffffffffffffffffffffffff16316040518082815260200191505060405180910390a13373ffffffffffffffffffffffffffffffffffffffff166108fc3073ffffffffffffffffffffffffffffffffffffffff16319081150290604051600060405180830381858888f193505050501580156121a6573d6000803e3d6000fd5b506001905090565b600083838080601f016020809104026020016040519081016040528093929190818152602001838380828437600081840152601f19601f82011690508083019250505050505050600160008280519060200120815260200190815260200160002060010160149054906101000a900460ff16151515612295576040517f08c379a00000000000000000000000000000000000000000000000000000000081526004018080602001828103825260168152602001807f4572726f723a204f6e6c79207768656e20656e7472790000000000000000000081525060200191505060405180910390fd5b848460405180838380828437808301925050509250505060405180910390203373ffffffffffffffffffffffffffffffffffffffff166001600083815260200190815260200160002060000160009054906101000a900473ffffffffffffffffffffffffffffffffffffffff1673ffffffffffffffffffffffffffffffffffffffff1614151561238d576040517f08c379a00000000000000000000000000000000000000000000000000000000081526004018080602001828103825260148152602001807f4572726f723a204f6e6c79206f776e6572206f6600000000000000000000000081525060200191505060405180910390fd5b6000868660405180838380828437808301925050509250505060405180910390209050600073ffffffffffffffffffffffffffffffffffffffff166001600083815260200190815260200160002060010160009054906101000a900473ffffffffffffffffffffffffffffffffffffffff1673ffffffffffffffffffffffffffffffffffffffff16141580156124fe575080600260006001600085815260200190815260200160002060010160009054906101000a900473ffffffffffffffffffffffffffffffffffffffff1673ffffffffffffffffffffffffffffffffffffffff1673ffffffffffffffffffffffffffffffffffffffff16815260200190815260200160002060405180828054600181600116156101000203166002900480156124ef5780601f106124cd5761010080835404028352918201916124ef565b820191906000526020600020905b8154815290600101906020018083116124db575b50509150506040518091039020145b1561263557600260006001600084815260200190815260200160002060010160009054906101000a900473ffffffffffffffffffffffffffffffffffffffff1673ffffffffffffffffffffffffffffffffffffffff1673ffffffffffffffffffffffffffffffffffffffff16815260200190815260200160002060006125849190613727565b6001600082815260200190815260200160002060010160009054906101000a900473ffffffffffffffffffffffffffffffffffffffff1673ffffffffffffffffffffffffffffffffffffffff167f12491ad95fd945e444d88a894ffad3c21959880a4dcd8af99d4ae4ffc71d4abd888860405180806020018281038252848482818152602001925080828437600081840152601f19601f820116905080830192505050935050505060405180910390a25b846001600083815260200190815260200160002060010160006101000a81548173ffffffffffffffffffffffffffffffffffffffff021916908373ffffffffffffffffffffffffffffffffffffffff1602179055508473ffffffffffffffffffffffffffffffffffffffff167f728435a0031f6a04538fcdd24922a7e06bc7bc945db03e83d22122d1bc5f28df888860405180806020018281038252848482818152602001925080828437600081840152601f19601f820116905080830192505050935050505060405180910390a2600193505050509392505050565b6000816001600082815260200190815260200160002060010160149054906101000a900460ff161515156127ae576040517f08c379a000000000000000000000000000000000000000000000000000000000815260040180806020018281038252601a8152602001807f4572726f723a204f6e6c79207768656e20656e7472792072617700000000000081525060200191505060405180910390fd5b600073ffffffffffffffffffffffffffffffffffffffff166001600085815260200190815260200160002060010160009054906101000a900473ffffffffffffffffffffffffffffffffffffffff1673ffffffffffffffffffffffffffffffffffffffff161415915050919050565b6000836001600082815260200190815260200160002060010160149054906101000a900460ff161515156128b9576040517f08c379a000000000000000000000000000000000000000000000000000000000815260040180806020018281038252601a8152602001807f4572726f723a204f6e6c79207768656e20656e7472792072617700000000000081525060200191505060405180910390fd5b600160008681526020019081526020016000206002018484604051808383808284378083019250505092505050908152602001604051809103902054600190049150509392505050565b60035481565b6000816001600082815260200190815260200160002060010160149054906101000a900460ff161515156129a5576040517f08c379a000000000000000000000000000000000000000000000000000000000815260040180806020018281038252601a8152602001807f4572726f723a204f6e6c79207768656e20656e7472792072617700000000000081525060200191505060405180910390fd5b6001600084815260200190815260200160002060000160009054906101000a900473ffffffffffffffffffffffffffffffffffffffff16915050919050565b6000816001600082815260200190815260200160002060010160149054906101000a900460ff16151515612a80576040517f08c379a000000000000000000000000000000000000000000000000000000000815260040180806020018281038252601a8152602001807f4572726f723a204f6e6c79207768656e20656e7472792072617700000000000081525060200191505060405180910390fd5b6001600084815260200190815260200160002060010160009054906101000a900473ffffffffffffffffffffffffffffffffffffffff16915050919050565b6060600260008373ffffffffffffffffffffffffffffffffffffffff1673ffffffffffffffffffffffffffffffffffffffff1681526020019081526020016000208054600181600116156101000203166002900480601f016020809104026020016040519081016040528092919081815260200182805460018160011615610100020316600290048015612b945780601f10612b6957610100808354040283529160200191612b94565b820191906000526020600020905b815481529060010190602001808311612b7757829003601f168201915b50505050509050919050565b6000846001600082815260200190815260200160002060010160149054906101000a900460ff16151515612c3c576040517f08c379a000000000000000000000000000000000000000000000000000000000815260040180806020018281038252601a8152602001807f4572726f723a204f6e6c79207768656e20656e7472792072617700000000000081525060200191505060405180910390fd5b853373ffffffffffffffffffffffffffffffffffffffff166001600083815260200190815260200160002060000160009054906101000a900473ffffffffffffffffffffffffffffffffffffffff1673ffffffffffffffffffffffffffffffffffffffff16141515612d16576040517f08c379a00000000000000000000000000000000000000000000000000000000081526004018080602001828103825260148152602001807f4572726f723a204f6e6c79206f776e6572206f6600000000000000000000000081525060200191505060405180910390fd5b83600102600160008981526020019081526020016000206002018787604051808383808284378083019250505092505050908152602001604051809103902081905550867fb829c3e412537bbe794c048ccb9e4605bb4aaaa8e4d4c15c1a6e0c2adc1716ea878789896040518080602001806020018381038352878782818152602001925080828437600081840152601f19601f8201169050808301925050508381038252858582818152602001925080828437600081840152601f19601f820116905080830192505050965050505050505060405180910390a2600192505050949350505050565b600083838080601f016020809104026020016040519081016040528093929190818152602001838380828437600081840152601f19601f82011690508083019250505050505050600160008280519060200120815260200190815260200160002060010160149054906101000a900460ff16151515612ee6576040517f08c379a00000000000000000000000000000000000000000000000000000000081526004018080602001828103825260168152602001807f4572726f723a204f6e6c79207768656e20656e7472790000000000000000000081525060200191505060405180910390fd5b6000809054906101000a900473ffffffffffffffffffffffffffffffffffffffff1673ffffffffffffffffffffffffffffffffffffffff163373ffffffffffffffffffffffffffffffffffffffff16141515612faa576040517f08c379a000000000000000000000000000000000000000000000000000000000815260040180806020018281038252601d8152602001807f4572726f723a20596f7520617265206e6f7420746865206f776e65722100000081525060200191505060405180910390fd5b8484600260008673ffffffffffffffffffffffffffffffffffffffff1673ffffffffffffffffffffffffffffffffffffffff1681526020019081526020016000209190612ff89291906136a7565b508273ffffffffffffffffffffffffffffffffffffffff167f098ae8581bb8bd9af1beaf7f2e9f51f31a8e5a8bfada4e303a645d71d9c91920868660405180806020018281038252848482818152602001925080828437600081840152601f19601f820116905080830192505050935050505060405180910390a260019150509392505050565b600260003373ffffffffffffffffffffffffffffffffffffffff1673ffffffffffffffffffffffffffffffffffffffff1681526020019081526020016000208054600181600116156101000203166002900480601f0160208091040260200160405190810160405280929190818152602001828054600181600116156101000203166002900480156131525780601f1061312757610100808354040283529160200191613152565b820191906000526020600020905b81548152906001019060200180831161313557829003601f168201915b5050505050600160008280519060200120815260200190815260200160002060010160149054906101000a900460ff161515156131f7576040517f08c379a00000000000000000000000000000000000000000000000000000000081526004018080602001828103825260168152602001807f4572726f723a204f6e6c79207768656e20656e7472790000000000000000000081525060200191505060405180910390fd5b3373ffffffffffffffffffffffffffffffffffffffff167f12491ad95fd945e444d88a894ffad3c21959880a4dcd8af99d4ae4ffc71d4abd600260003373ffffffffffffffffffffffffffffffffffffffff1673ffffffffffffffffffffffffffffffffffffffff16815260200190815260200160002060405180806020018281038252838181546001816001161561010002031660029004815260200191508054600181600116156101000203166002900480156132f75780601f106132cc576101008083540402835291602001916132f7565b820191906000526020600020905b8154815290600101906020018083116132da57829003601f168201915b50509250505060405180910390a260016000600260003373ffffffffffffffffffffffffffffffffffffffff1673ffffffffffffffffffffffffffffffffffffffff16815260200190815260200160002060405180828054600181600116156101000203166002900480156133a35780601f106133815761010080835404028352918201916133a3565b820191906000526020600020905b81548152906001019060200180831161338f575b50509150506040518091039020815260200190815260200160002060010160006101000a81549073ffffffffffffffffffffffffffffffffffffffff0219169055600260003373ffffffffffffffffffffffffffffffffffffffff1673ffffffffffffffffffffffffffffffffffffffff168152602001908152602001600020600061342f9190613727565b50565b6000846001600082815260200190815260200160002060010160149054906101000a900460ff161515156134ce576040517f08c379a000000000000000000000000000000000000000000000000000000000815260040180806020018281038252601a8152602001807f4572726f723a204f6e6c79207768656e20656e7472792072617700000000000081525060200191505060405180910390fd5b853373ffffffffffffffffffffffffffffffffffffffff166001600083815260200190815260200160002060000160009054906101000a900473ffffffffffffffffffffffffffffffffffffffff1673ffffffffffffffffffffffffffffffffffffffff161415156135a8576040517f08c379a00000000000000000000000000000000000000000000000000000000081526004018080602001828103825260148152602001807f4572726f723a204f6e6c79206f776e6572206f6600000000000000000000000081525060200191505060405180910390fd5b8373ffffffffffffffffffffffffffffffffffffffff16600102600160008981526020019081526020016000206002018787604051808383808284378083019250505092505050908152602001604051809103902081905550867fb829c3e412537bbe794c048ccb9e4605bb4aaaa8e4d4c15c1a6e0c2adc1716ea878789896040518080602001806020018381038352878782818152602001925080828437600081840152601f19601f8201169050808301925050508381038252858582818152602001925080828437600081840152601f19601f820116905080830192505050965050505050505060405180910390a2600192505050949350505050565b828054600181600116156101000203166002900490600052602060002090601f016020900481019282601f106136e857803560ff1916838001178555613716565b82800160010185558215613716579182015b828111156137155782358255916020019190600101906136fa565b5b509050613723919061376f565b5090565b50805460018160011615610100020316600290046000825580601f1061374d575061376c565b601f01602090049060005260206000209081019061376b919061376f565b5b50565b61379191905b8082111561378d576000816000905550600101613775565b5090565b9056fea165627a7a7230582087d071bfd3e1d9235f67265d6bf06fdba89edae52ac64b8b0ed08a28de6d375c0029",
  "source": "//! The simple registry contract.\n//!\n//! Copyright 2016 Gavin Wood, Parity Technologies Ltd.\n//!\n//! Licensed under the Apache License, Version 2.0 (the \"License\");\n//! you may not use this file except in compliance with the License.\n//! You may obtain a copy of the License at\n//!\n//!     http://www.apache.org/licenses/LICENSE-2.0\n//!\n//! Unless required by applicable law or agreed to in writing, software\n//! distributed under the License is distributed on an \"AS IS\" BASIS,\n//! WITHOUT WARRANTIES OR CONDITIONS OF ANY KIND, either express or implied.\n//! See the License for the specific language governing permissions and\n//! limitations under the License.\n\npragma solidity ^0.5.0;\n\nimport \"./Owned.sol\";\nimport \"./Registry.sol\";\n\n\ncontract SimpleRegistry is Owned, MetadataRegistry, OwnerRegistry, ReverseRegistry {\n    struct Entry {\n        address owner;\n        address reverse;\n        bool deleted;\n        mapping (string => bytes32) data;\n    }\n\n    event Drained(uint amount);\n    event FeeChanged(uint amount);\n    event ReverseProposed(string name, address indexed reverse);\n\n    mapping (bytes32 => Entry) entries;\n    mapping (address => string) reverses;\n\n    uint public fee = 1 ether;\n\n    modifier whenUnreserved(bytes32 _name) {\n        require(entries[_name].owner == address(0), \"Error: Only when unreserved\");\n        _;\n    }\n\n    modifier onlyOwnerOf(bytes32 _name) {\n        require(entries[_name].owner == msg.sender, \"Error: Only owner of\");\n        _;\n    }\n\n    modifier whenProposed(string memory _name) {\n        require(entries[keccak256(bytes(_name))].reverse == msg.sender, \"Error: Only when proposed\");\n        _;\n    }\n\n    modifier whenEntry(string memory _name) {\n        require(!entries[keccak256(bytes(_name))].deleted, \"Error: Only when entry\");\n        _;\n    }\n\n    modifier whenEntryRaw(bytes32 _name) {\n        require(!entries[_name].deleted, \"Error: Only when entry raw\");\n        _;\n    }\n\n    modifier whenFeePaid {\n        require(msg.value >= fee, \"Error: only when fee paid\");\n        _;\n    }\n\n    // Reservation functions\n    function reserve(bytes32 _name)\n        external\n        payable\n        whenEntryRaw(_name)\n        whenUnreserved(_name)\n        whenFeePaid\n        onlyOwner\n        returns (bool success)\n    {\n        entries[_name].owner = msg.sender;\n        emit Reserved(_name, msg.sender);\n        return true;\n    }\n\n    function transfer(bytes32 _name, address _to)\n        external\n        whenEntryRaw(_name)\n        onlyOwnerOf(_name)\n        returns (bool success)\n    {\n        entries[_name].owner = _to;\n        emit Transferred(_name, msg.sender, _to);\n        return true;\n    }\n\n    function drop(bytes32 _name)\n        external\n        whenEntryRaw(_name)\n        onlyOwnerOf(_name)\n        returns (bool success)\n    {\n        delete reverses[entries[_name].reverse];\n        entries[_name].deleted = true;\n        emit Dropped(_name, msg.sender);\n        return true;\n    }\n\n    // Data admin functions\n    function setData(bytes32 _name, string calldata _key, bytes32 _value)\n        external\n        whenEntryRaw(_name)\n        onlyOwnerOf(_name)\n        returns (bool success)\n    {\n        entries[_name].data[_key] = _value;\n        emit DataChanged(_name, _key, _key);\n        return true;\n    }\n\n    function setAddress(bytes32 _name, string calldata _key, address _value)\n        external\n        whenEntryRaw(_name)\n        onlyOwnerOf(_name)\n        returns (bool success)\n    {\n        entries[_name].data[_key] = bytes32(uint256(_value));\n        emit DataChanged(_name, _key, _key);\n        return true;\n    }\n\n    function setUint(bytes32 _name, string calldata _key, uint _value)\n        external\n        whenEntryRaw(_name)\n        onlyOwnerOf(_name)\n        returns (bool success)\n    {\n        entries[_name].data[_key] = bytes32(_value);\n        emit DataChanged(_name, _key, _key);\n        return true;\n    }\n\n    // Reverse registration functions\n    function proposeReverse(string calldata _name, address _who)\n        external\n        whenEntry(_name)\n        onlyOwnerOf(keccak256(bytes(_name)))\n        returns (bool success)\n    {\n        bytes32 sha3Name = keccak256(bytes(_name));\n        if (entries[sha3Name].reverse != address(0) && keccak256(bytes(reverses[entries[sha3Name].reverse])) == sha3Name) {\n            delete reverses[entries[sha3Name].reverse];\n            emit ReverseRemoved(_name, entries[sha3Name].reverse);\n        }\n        entries[sha3Name].reverse = _who;\n        emit ReverseProposed(_name, _who);\n        return true;\n    }\n\n    function confirmReverse(string calldata _name)\n        external\n        whenEntry(_name)\n        whenProposed(_name)\n        returns (bool success)\n    {\n        reverses[msg.sender] = _name;\n        emit ReverseConfirmed(_name, msg.sender);\n        return true;\n    }\n\n    function confirmReverseAs(string calldata _name, address _who)\n        external\n        whenEntry(_name)\n        onlyOwner\n        returns (bool success)\n    {\n        reverses[_who] = _name;\n        emit ReverseConfirmed(_name, _who);\n        return true;\n    }\n\n    function removeReverse()\n        external\n        whenEntry(reverses[msg.sender])\n    {\n        emit ReverseRemoved(reverses[msg.sender], msg.sender);\n        delete entries[keccak256(bytes(reverses[msg.sender]))].reverse;\n        delete reverses[msg.sender];\n    }\n\n    // Admin functions for the owner\n    function setFee(uint _amount)\n        external\n        onlyOwner\n        returns (bool)\n    {\n        fee = _amount;\n        emit FeeChanged(_amount);\n        return true;\n    }\n\n    function drain()\n        external\n        onlyOwner\n        returns (bool)\n    {\n        emit Drained(address(this).balance);\n        msg.sender.transfer(address(this).balance);\n        return true;\n    }\n\n    // MetadataRegistry views\n    function getData(bytes32 _name, string calldata _key)\n        external\n        view\n        whenEntryRaw(_name)\n        returns (bytes32)\n    {\n        return entries[_name].data[_key];\n    }\n\n    function getAddress(bytes32 _name, string calldata _key)\n        external\n        view\n        whenEntryRaw(_name)\n        returns (address)\n    {\n        return address(uint256(entries[_name].data[_key]));\n    }\n\n    function getUint(bytes32 _name, string calldata _key)\n        external\n        view\n        whenEntryRaw(_name)\n        returns (uint)\n    {\n        return uint(entries[_name].data[_key]);\n    }\n\n    // OwnerRegistry views\n    function getOwner(bytes32 _name)\n        external\n        view\n        whenEntryRaw(_name)\n        returns (address)\n    {\n        return entries[_name].owner;\n    }\n\n    // ReversibleRegistry views\n    function hasReverse(bytes32 _name)\n        external\n        view\n        whenEntryRaw(_name)\n        returns (bool)\n    {\n        return entries[_name].reverse != address(0);\n    }\n\n    function getReverse(bytes32 _name)\n        external\n        view\n        whenEntryRaw(_name)\n        returns (address)\n    {\n        return entries[_name].reverse;\n    }\n\n    function canReverse(address _data)\n        external\n        view\n        returns (bool)\n    {\n        return bytes(reverses[_data]).length != 0;\n    }\n\n    function reverse(address _data)\n        external\n        view\n        returns (string memory)\n    {\n        return reverses[_data];\n    }\n\n    function reserved(bytes32 _name)\n        external\n        view\n        whenEntryRaw(_name)\n        returns (bool)\n    {\n        return entries[_name].owner != address(0);\n    }\n}",
  "sourcePath": "/Users/jbentke/Documents/EWF_Governance/genome-system-contracts/contracts/registry/SimpleRegistry.sol",
  "compiler": {
    "name": "solc",
    "version": "0.5.4+commit.9549d8ff.Emscripten.clang"
  },
  "schemaVersion": "3.0.2",
  "updatedAt": "2019-03-18T14:45:55.776Z",
  "devdoc": {
    "methods": {}
  },
  "userdoc": {
    "methods": {}
  }
}