{
  "contractName": "VestingFoo",
  "abi": [
    {
      "constant": true,
      "inputs": [],
      "name": "x",
      "outputs": [
        {
          "name": "",
          "type": "uint256"
        }
      ],
      "payable": false,
      "stateMutability": "view",
      "type": "function"
    },
    {
      "inputs": [
        {
          "name": "_x",
          "type": "uint256"
        }
      ],
      "payable": false,
      "stateMutability": "nonpayable",
      "type": "constructor"
    },
    {
      "constant": false,
      "inputs": [
        {
          "name": "_x",
          "type": "uint256"
        }
      ],
      "name": "setX",
      "outputs": [
        {
          "name": "",
          "type": "bool"
        }
      ],
      "payable": false,
      "stateMutability": "nonpayable",
      "type": "function"
    }
  ],
  "bytecode": "0x608060405234801561001057600080fd5b5060405160208061014a8339810180604052602081101561003057600080fd5b8101908080519060200190929190505050806000819055505060f3806100576000396000f3fe6080604052348015600f57600080fd5b5060043610604f576000357c0100000000000000000000000000000000000000000000000000000000900480630c55699c1460545780634018d9aa146070575b600080fd5b605a60b3565b6040518082815260200191505060405180910390f35b609960048036036020811015608457600080fd5b810190808035906020019092919050505060b9565b604051808215151515815260200191505060405180910390f35b60005481565b60008160008190555091905056fea165627a7a72305820111228b559c09c6b886e76272c62b432002f4392ea704c344e1aaa9e8b3b19730029",
  "source": "pragma solidity ^0.5.0;\n\nimport \"../interfaces/SetX.sol\";\n\n\ncontract VestingFoo is SetX {\n    \n    uint public x;\n\n    constructor(uint _x)\n        public\n    {\n        x = _x;\n    }\n\n    function setX(uint _x)\n        external\n        returns (bool)\n    {\n        x = _x;\n    }\n}\n",
  "sourcePath": "/Users/jbentke/Documents/EWF_Governance/genome-system-contracts/contracts/vesting/VestingFoo.sol",
  "compiler": {
    "name": "solc",
    "version": "0.5.4+commit.9549d8ff.Emscripten.clang"
  },
  "schemaVersion": "3.0.2",
  "updatedAt": "2019-03-18T14:45:55.786Z",
  "devdoc": {
    "methods": {}
  },
  "userdoc": {
    "methods": {}
  }
}